:020000040000FA
:020000000528D1
:040002000034003492
:0200080032289C
:06000A00831603138501BB
:10001000013086008701E0308800003089007530AB
:100020008F00D030810090308B0033309900243025
:10003000980083160317880189018711831203131F
:10004000803098008501383086008700B301A50113
:10005000A201A301A4010530A600A701B20132301C
:10006000B400EC293030030EB1008B1854200B196A
:100070003E20310E8300B00E300E09000B11CA3045
:100080008100A20A0A302202031D0800A201A30A6D
:100090000A302302031D0800A301A40A0A30240227
:1000A000031D0800A40108008B10061C6328CA3039
:1000B00081008B16A201A301A4018316031301136F
:1000C0008312031308008B123314831603130117D2
:1000D00083120313080038308600223084000008A1
:1000E000D92086128500BC208616840A0008D920F3
:1000F00006128500BC200616840A0008D920861145
:100100008500BC208615840A0008D9208712850046
:10011000BC208716840A0008D92007128500BC205D
:100120000716840A0008D92087118500BC2087158E
:1001300008002308B120A9002408B120B120AA009A
:10014000220829072A07AB002608B120AD0027089E
:10015000B120B120AE0025082D072E07AF00B70152
:100160000800B700B8000930B6003808B707B60372
:10017000031DB528370808001430A1002130A00065
:10018000A00BC028A10BBE2808000630A000A00BC1
:10019000C72808003A08BD006B2015213B08A100C4
:1001A0003C08A000A00BD228A10BD028BD0BCC2866
:1001B000080082074034793424343034193412343E
:1001C0000234783400341834BF348207443469343C
:1001D0007334743461346E346334693461343A3462
:1001E00020342508AC002608AD002708AE000A30F0
:1001F000A500A600A700253084008420881B0E21BE
:10020000881EF728881A0229223084002C08A500AD
:100210002E08A7002D08A600B3100800E221881BB5
:100220006B20881B0F29F0210800881A1C29081B45
:100230002029881B38290800881A1C29B3140800B3
:10024000081B2029A50A32100A302506031D0800C4
:10025000A501A60AB2100A302606031D0800A60151
:10026000A70A32110A302706031D0800A40108005E
:10027000881B3829321808002508003A031942293A
:10028000A5030800B2185F290930A500A603FF30B6
:100290002606031D080032195A290930A600A703B3
:1002A000FF302706031D080032150030A700A60006
:1002B000A5000800B2140030A500A6000800321402
:1002C0000030A500080099202B082F02031C952957
:1002D00005302F02BE00B700BF0A0530B702031871
:1002E0006C29BF033F08083EB70008302B02031CEF
:1002F0009A292B08370203189F293F08B7072B08B4
:1003000037020318A7293F08B7072B08370203183D
:10031000AF293F08B7072B0837020318B7293F0852
:10032000B7072B0837020318BF2909110711071057
:10033000871008008312031309150714080083129D
:1003400003130714871007110A30BA00C729831254
:1003500003138714071107101E30BA00C729831230
:1003600003138714071107103230BA00C72983120C
:1003700003130715071087104630BA00C7298312E8
:1003800003130715071087105A30BA00C7291A300F
:10039000BB004530BC00B701BF010919D3290915BD
:1003A000BC20BC200800F83087050911B701BF0147
:1003B000CA2008008312031399008316981CDE29B3
:1003C00083120800061033108614C5208610061C00
:1003D000E429331CE9290800B318F1206B20E2213D
:1003E000A0012008E520DA21A00A0B302006031D19
:1003F000F129243084000008303EDA21C52084032E
:1004000021300406031DFB290A30DA21B318080045
:10041000632115216B20B403031D0A2A3230B40076
:02042000EC29C5
:02400E00F42F8D
:02401000FF3F70
:00000001FF
